:020000020000FC
:1000000041C0189516C01895189518950AC01895EE
:100010001895189518951895189518951895189578
:1000200018955F5F5B3B10F03F5F50E000E002BF60
:100030001895A0E000E060E070E000E05ED160E0D4
:1000400070E000E0B19B01C013C02F5F07D17DD0ED
:1000500060E070E000E051D160E070E000E0B19B52
:10006000F4CFA0E000E049D160E070E000E0189536
:100070003F5FF4D06AD0A0E000E03FD160E070E0E4
:1000800000E01895F894E0E6F0E000270193F030E6
:10009000E9F7E03AD9F7EE27FF27EEE1FF27EA95E7
:1000A000F083E9F70FE90DBF002706E009BF00E084
:1000B00005E003BF00E00CEB06BF00E002BFB89A0A
:1000C000BA9ABB9A80E420E030E050E060E070E053
:1000D00002E008BB05BB00E20BBFB0E016C078949D
:1000E000C3E0C150DAE0C23008F40CC0D150D230C5
:1000F00008F4F7CF60E070E000E0FFD060E070E06F
:1001000000E0F4CFB13041F000C070E0A7D01DD0C6
:1001100070E0A0E0B1E0E3CFF894522E632E00E04F
:1001200002E607B900EC06B960E070E000E0E5D057
:1001300060E070E000E023E633E699D006D070E09E
:10014000A0E0252D362DB0E0CACF2F3F0BE041F0C7
:10015000A0E0022F10E00A3018F00A501F5FFBCF1A
:10016000B02E032F90E00A3018F00A509F5FFBCFAB
:10017000D02EA03059F0A13061F0A23071F0A33040
:10018000B1F004E008BB00E008BB0895AF5F0D2D9F
:100190002DC05BD0AF5F092F29C057D0AF5F0B2DAB
:1001A0002F3F09F003C01BE0B12E1CE01FC04DD053
:1001B000AF5F012F2F3F09F003C01BE0B12E1CE001
:1001C00015C0962E692D773008F00CC07F5F68232C
:1001D000681721F060E08695A5D0F4CF61E08695A0
:1001E000A1D0F0CF70E080E460E0C3CF0130A9F08F
:1001F0000230A9F00330A9F00430A9F00530A9F0CD
:100200000630A9F00730A9F00830A9F00930A9F0AC
:100210000B30B9F00C30B9F012C066E0D2CF6BE50C
:10022000D0CF6FE4CECF66E6CCCF6DE6CACF6DE718
:10023000C8CF67E0C6CF6FE7C4CF6FE6C2CF6FE32A
:10024000C0CF60E4BECF60E0BCCF08E008BB00E0F8
:1002500008BB08E008BB00E008BB08953C3310F081
:1002600030E02F5F283108F401C020E0089525B167
:10027000253118F42FEF33E60895022F70E02A306D
:1002800018F02A507F5FFBCF122E622F260F260F09
:10029000260F672F70E02A3018F02A507F5FFBCFBF
:1002A000253008F401C07F5F272F260F260F260F69
:1002B000260F70E0762F670F670F712D170E170E40
:1002C00070E0012D0A3018F00A507F5FFBCF670FF6
:1002D00070E0062F0A3018F00A507F5FFBCF270F1F
:1002E000223328F432E3321B2FEF70E005C0225393
:1002F000322F20E070E000C008956150072F613078
:1003000008F40FC00150013008F4F7CF00000000DE
:1003100000000000000000000000000000000000DD
:10032000F1CF0895613028F001E008BB09E008BB77
:0C03300004C000E008BB08E008BB089512
:00000001FF
